:020000003328A3
:1000060020308316031398009030831298000C302A
:1000160083169900EF3083128C05DF308C050800BB
:1000260007308312031392000C3097000C309D00AA
:10003600FA308316920087017D30831295007D3059
:040046009B00080013
:0E004A00DF30831203138C051A08F000080043
:0E0058008312031323089900EF308C05080073
:10006600831603138801C030870083129F0183160D
:100076009F01831288011320032025207008A00009
:100086007008A3002C202008463A031D4D28553041
:10009600880083282008523A031D5428AA30880075
:1000A60083282008573A031D5B284130880083289F
:1000B60020084C3A031D6228143088008328200843
:1000C600533A031D6828880183282008513A031DE6
:1000D6006F284030950083282008543A031D76285F
:1000E6008030950083282008453A031D7D28C030BE
:1000F6009500832820085A3A031D8328FF3095006F
:0401060040288428E1
:02400E004A2F37
:00000001FF
